{
  "_format": "hh-sol-artifact-1",
  "contractName": "RealEstate",
  "sourceName": "contracts/RealEstate.sol",
  "abi": [
    {
      "anonymous": false,
      "inputs": [
        {
          "indexed": true,
          "internalType": "uint256",
          "name": "id",
          "type": "uint256"
        },
        {
          "indexed": true,
          "internalType": "address",
          "name": "owner",
          "type": "address"
        },
        {
          "indexed": false,
          "internalType": "uint256",
          "name": "price",
          "type": "uint256"
        }
      ],
      "name": "PropertyListed",
      "type": "event"
    },
    {
      "anonymous": false,
      "inputs": [
        {
          "indexed": true,
          "internalType": "uint256",
          "name": "id",
          "type": "uint256"
        },
        {
          "indexed": true,
          "internalType": "address",
          "name": "oldOwner",
          "type": "address"
        },
        {
          "indexed": true,
          "internalType": "address",
          "name": "newOwner",
          "type": "address"
        },
        {
          "indexed": false,
          "internalType": "uint256",
          "name": "price",
          "type": "uint256"
        }
      ],
      "name": "PropertyResold",
      "type": "event"
    },
    {
      "anonymous": false,
      "inputs": [
        {
          "indexed": true,
          "internalType": "uint256",
          "name": "id",
          "type": "uint256"
        },
        {
          "indexed": true,
          "internalType": "address",
          "name": "oldOwner",
          "type": "address"
        },
        {
          "indexed": true,
          "internalType": "address",
          "name": "newOwner",
          "type": "address"
        },
        {
          "indexed": false,
          "internalType": "uint256",
          "name": "price",
          "type": "uint256"
        }
      ],
      "name": "PropertySold",
      "type": "event"
    },
    {
      "anonymous": false,
      "inputs": [
        {
          "indexed": true,
          "internalType": "uint256",
          "name": "productID",
          "type": "uint256"
        },
        {
          "indexed": true,
          "internalType": "address",
          "name": "reviewer",
          "type": "address"
        },
        {
          "indexed": false,
          "internalType": "uint256",
          "name": "rating",
          "type": "uint256"
        },
        {
          "indexed": false,
          "internalType": "string",
          "name": "comment",
          "type": "string"
        }
      ],
      "name": "ReviewAdded",
      "type": "event"
    },
    {
      "anonymous": false,
      "inputs": [
        {
          "indexed": true,
          "internalType": "uint256",
          "name": "productId",
          "type": "uint256"
        },
        {
          "indexed": true,
          "internalType": "uint256",
          "name": "reviewIndex",
          "type": "uint256"
        },
        {
          "indexed": true,
          "internalType": "address",
          "name": "liker",
          "type": "address"
        },
        {
          "indexed": false,
          "internalType": "uint256",
          "name": "likes",
          "type": "uint256"
        }
      ],
      "name": "ReviewLiked",
      "type": "event"
    },
    {
      "inputs": [
        {
          "internalType": "uint256",
          "name": "productId",
          "type": "uint256"
        },
        {
          "internalType": "uint256",
          "name": "rating",
          "type": "uint256"
        },
        {
          "internalType": "string",
          "name": "comment",
          "type": "string"
        },
        {
          "internalType": "address",
          "name": "user",
          "type": "address"
        }
      ],
      "name": "addReview",
      "outputs": [],
      "stateMutability": "nonpayable",
      "type": "function"
    },
    {
      "inputs": [
        {
          "internalType": "uint256",
          "name": "id",
          "type": "uint256"
        },
        {
          "internalType": "address",
          "name": "buyer",
          "type": "address"
        }
      ],
      "name": "buyProperty",
      "outputs": [],
      "stateMutability": "payable",
      "type": "function"
    },
    {
      "inputs": [],
      "name": "getAllProperties",
      "outputs": [
        {
          "components": [
            {
              "internalType": "uint256",
              "name": "productID",
              "type": "uint256"
            },
            {
              "internalType": "address",
              "name": "owner",
              "type": "address"
            },
            {
              "internalType": "uint256",
              "name": "price",
              "type": "uint256"
            },
            {
              "internalType": "string",
              "name": "propertyTitle",
              "type": "string"
            },
            {
              "internalType": "string",
              "name": "category",
              "type": "string"
            },
            {
              "internalType": "string",
              "name": "images",
              "type": "string"
            },
            {
              "internalType": "string",
              "name": "propertyAddress",
              "type": "string"
            },
            {
              "internalType": "string",
              "name": "description",
              "type": "string"
            },
            {
              "internalType": "address[]",
              "name": "reviewers",
              "type": "address[]"
            },
            {
              "internalType": "string[]",
              "name": "reviews",
              "type": "string[]"
            }
          ],
          "internalType": "struct RealEstate.Property[]",
          "name": "",
          "type": "tuple[]"
        }
      ],
      "stateMutability": "view",
      "type": "function"
    },
    {
      "inputs": [],
      "name": "getHighestratedProduct",
      "outputs": [
        {
          "internalType": "uint256",
          "name": "",
          "type": "uint256"
        }
      ],
      "stateMutability": "view",
      "type": "function"
    },
    {
      "inputs": [
        {
          "internalType": "uint256",
          "name": "productId",
          "type": "uint256"
        }
      ],
      "name": "getProductReviews",
      "outputs": [
        {
          "components": [
            {
              "internalType": "address",
              "name": "reviewer",
              "type": "address"
            },
            {
              "internalType": "uint256",
              "name": "productID",
              "type": "uint256"
            },
            {
              "internalType": "uint256",
              "name": "rating",
              "type": "uint256"
            },
            {
              "internalType": "string",
              "name": "comment",
              "type": "string"
            },
            {
              "internalType": "uint256",
              "name": "likes",
              "type": "uint256"
            }
          ],
          "internalType": "struct RealEstate.Review[]",
          "name": "",
          "type": "tuple[]"
        }
      ],
      "stateMutability": "view",
      "type": "function"
    },
    {
      "inputs": [
        {
          "internalType": "uint256",
          "name": "id",
          "type": "uint256"
        }
      ],
      "name": "getProperty",
      "outputs": [
        {
          "internalType": "uint256",
          "name": "",
          "type": "uint256"
        },
        {
          "internalType": "address",
          "name": "",
          "type": "address"
        },
        {
          "internalType": "uint256",
          "name": "",
          "type": "uint256"
        },
        {
          "internalType": "string",
          "name": "",
          "type": "string"
        },
        {
          "internalType": "string",
          "name": "",
          "type": "string"
        },
        {
          "internalType": "string",
          "name": "",
          "type": "string"
        },
        {
          "internalType": "string",
          "name": "",
          "type": "string"
        },
        {
          "internalType": "string",
          "name": "",
          "type": "string"
        }
      ],
      "stateMutability": "view",
      "type": "function"
    },
    {
      "inputs": [
        {
          "internalType": "address",
          "name": "user",
          "type": "address"
        }
      ],
      "name": "getUserProperty",
      "outputs": [
        {
          "components": [
            {
              "internalType": "uint256",
              "name": "productID",
              "type": "uint256"
            },
            {
              "internalType": "address",
              "name": "owner",
              "type": "address"
            },
            {
              "internalType": "uint256",
              "name": "price",
              "type": "uint256"
            },
            {
              "internalType": "string",
              "name": "propertyTitle",
              "type": "string"
            },
            {
              "internalType": "string",
              "name": "category",
              "type": "string"
            },
            {
              "internalType": "string",
              "name": "images",
              "type": "string"
            },
            {
              "internalType": "string",
              "name": "propertyAddress",
              "type": "string"
            },
            {
              "internalType": "string",
              "name": "description",
              "type": "string"
            },
            {
              "internalType": "address[]",
              "name": "reviewers",
              "type": "address[]"
            },
            {
              "internalType": "string[]",
              "name": "reviews",
              "type": "string[]"
            }
          ],
          "internalType": "struct RealEstate.Property[]",
          "name": "",
          "type": "tuple[]"
        }
      ],
      "stateMutability": "view",
      "type": "function"
    },
    {
      "inputs": [
        {
          "internalType": "address",
          "name": "user",
          "type": "address"
        }
      ],
      "name": "getUserReviews",
      "outputs": [
        {
          "components": [
            {
              "internalType": "address",
              "name": "reviewer",
              "type": "address"
            },
            {
              "internalType": "uint256",
              "name": "productID",
              "type": "uint256"
            },
            {
              "internalType": "uint256",
              "name": "rating",
              "type": "uint256"
            },
            {
              "internalType": "string",
              "name": "comment",
              "type": "string"
            },
            {
              "internalType": "uint256",
              "name": "likes",
              "type": "uint256"
            }
          ],
          "internalType": "struct RealEstate.Review[]",
          "name": "",
          "type": "tuple[]"
        }
      ],
      "stateMutability": "view",
      "type": "function"
    },
    {
      "inputs": [
        {
          "internalType": "uint256",
          "name": "productId",
          "type": "uint256"
        },
        {
          "internalType": "uint256",
          "name": "reviewIndex",
          "type": "uint256"
        },
        {
          "internalType": "address",
          "name": "user",
          "type": "address"
        }
      ],
      "name": "likeRiview",
      "outputs": [],
      "stateMutability": "nonpayable",
      "type": "function"
    },
    {
      "inputs": [
        {
          "internalType": "address",
          "name": "owner",
          "type": "address"
        },
        {
          "internalType": "uint256",
          "name": "price",
          "type": "uint256"
        },
        {
          "internalType": "string",
          "name": "_propertyTitle",
          "type": "string"
        },
        {
          "internalType": "string",
          "name": "_category",
          "type": "string"
        },
        {
          "internalType": "string",
          "name": "_images",
          "type": "string"
        },
        {
          "internalType": "string",
          "name": "_propertyAddress",
          "type": "string"
        },
        {
          "internalType": "string",
          "name": "_description",
          "type": "string"
        }
      ],
      "name": "listProperty",
      "outputs": [
        {
          "internalType": "uint256",
          "name": "",
          "type": "uint256"
        }
      ],
      "stateMutability": "nonpayable",
      "type": "function"
    },
    {
      "inputs": [],
      "name": "propertyIndex",
      "outputs": [
        {
          "internalType": "uint256",
          "name": "",
          "type": "uint256"
        }
      ],
      "stateMutability": "view",
      "type": "function"
    },
    {
      "inputs": [],
      "name": "reviewsCounter",
      "outputs": [
        {
          "internalType": "uint256",
          "name": "",
          "type": "uint256"
        }
      ],
      "stateMutability": "view",
      "type": "function"
    },
    {
      "inputs": [
        {
          "internalType": "address",
          "name": "owner",
          "type": "address"
        },
        {
          "internalType": "uint256",
          "name": "productId",
          "type": "uint256"
        },
        {
          "internalType": "uint256",
          "name": "price",
          "type": "uint256"
        }
      ],
      "name": "updatePrice",
      "outputs": [
        {
          "internalType": "string",
          "name": "",
          "type": "string"
        }
      ],
      "stateMutability": "nonpayable",
      "type": "function"
    },
    {
      "inputs": [
        {
          "internalType": "address",
          "name": "owner",
          "type": "address"
        },
        {
          "internalType": "uint256",
          "name": "productId",
          "type": "uint256"
        },
        {
          "internalType": "string",
          "name": "_propertyTitle",
          "type": "string"
        },
        {
          "internalType": "string",
          "name": "_category",
          "type": "string"
        },
        {
          "internalType": "string",
          "name": "_images",
          "type": "string"
        },
        {
          "internalType": "string",
          "name": "_propertyAddress",
          "type": "string"
        },
        {
          "internalType": "string",
          "name": "_description",
          "type": "string"
        }
      ],
      "name": "updateProperty",
      "outputs": [
        {
          "internalType": "uint256",
          "name": "",
          "type": "uint256"
        }
      ],
      "stateMutability": "nonpayable",
      "type": "function"
    }
  ],
  "bytecode": "0x608060405234801561001057600080fd5b506126d1806100206000396000f3fe6080604052600436106100dd5760003560e01c806357a64bde1161007f5780639e92a694116100595780639e92a69414610249578063ca6445af1461025c578063e57d6fb71461027c578063f56720b5146102a957600080fd5b806357a64bde146101fe5780637078930814610213578063844ce5621461023357600080fd5b80633b3bfa15116100bb5780633b3bfa15146101795780633d51402c146101a7578063439371ce146101bc57806346a4237b146101de57600080fd5b806316a0e5a7146100e257806318d0e8b21461011857806332665ffb14610145575b600080fd5b3480156100ee57600080fd5b506101026100fd366004611f58565b6102bf565b60405161010f9190612060565b60405180910390f35b34801561012457600080fd5b50610138610133366004611f58565b610882565b60405161010f919061219d565b34801561015157600080fd5b50610165610160366004612232565b610b5f565b60405161010f98979695949392919061224b565b34801561018557600080fd5b5061019961019436600461237f565b61100c565b60405190815260200161010f565b3480156101b357600080fd5b506101026110f1565b3480156101c857600080fd5b506101dc6101d736600461246b565b611607565b005b3480156101ea57600080fd5b506101386101f9366004612232565b6116a0565b34801561020a57600080fd5b506101996117d9565b34801561021f57600080fd5b5061019961022e36600461237f565b611860565b34801561023f57600080fd5b5061019960055481565b6101dc6102573660046124a0565b6119be565b34801561026857600080fd5b506101dc6102773660046124cc565b611ae1565b34801561028857600080fd5b5061029c610297366004612563565b611d28565b60405161010f9190612596565b3480156102b557600080fd5b5061019960015481565b600154606090600080805b8381101561032d576001600160a01b0386166000806102ea8460016125bf565b81526020810191909152604001600020600101546001600160a01b0316141561031b576103186001846125bf565b92505b80610325816125d7565b9150506102ca565b5060008267ffffffffffffffff811115610349576103496122dc565b60405190808252806020026020018201604052801561038257816020015b61036f611dd3565b8152602001906001900390816103675790505b50905060005b84811015610878576001600160a01b0387166000806103a88460016125bf565b81526020810191909152604001600020600101546001600160a01b031614156108665760006103d88260016125bf565b600081815260208181526040918290208251610140810184528154815260018201546001600160a01b031692810192909252600281015492820192909252600382018054939450919290918391606084019190610434906125f2565b80601f0160208091040260200160405190810160405280929190818152602001828054610460906125f2565b80156104ad5780601f10610482576101008083540402835291602001916104ad565b820191906000526020600020905b81548152906001019060200180831161049057829003601f168201915b505050505081526020016004820180546104c6906125f2565b80601f01602080910402602001604051908101604052809291908181526020018280546104f2906125f2565b801561053f5780601f106105145761010080835404028352916020019161053f565b820191906000526020600020905b81548152906001019060200180831161052257829003601f168201915b50505050508152602001600582018054610558906125f2565b80601f0160208091040260200160405190810160405280929190818152602001828054610584906125f2565b80156105d15780601f106105a6576101008083540402835291602001916105d1565b820191906000526020600020905b8154815290600101906020018083116105b457829003601f168201915b505050505081526020016006820180546105ea906125f2565b80601f0160208091040260200160405190810160405280929190818152602001828054610616906125f2565b80156106635780601f1061063857610100808354040283529160200191610663565b820191906000526020600020905b81548152906001019060200180831161064657829003601f168201915b5050505050815260200160078201805461067c906125f2565b80601f01602080910402602001604051908101604052809291908181526020018280546106a8906125f2565b80156106f55780601f106106ca576101008083540402835291602001916106f5565b820191906000526020600020905b8154815290600101906020018083116106d857829003601f168201915b505050505081526020016008820180548060200260200160405190810160405280929190818152602001828054801561075757602002820191906000526020600020905b81546001600160a01b03168152600190910190602001808311610739575b5050505050815260200160098201805480602002602001604051908101604052809291908181526020016000905b828210156108315783829060005260206000200180546107a4906125f2565b80601f01602080910402602001604051908101604052809291908181526020018280546107d0906125f2565b801561081d5780601f106107f25761010080835404028352916020019161081d565b820191906000526020600020905b81548152906001019060200180831161080057829003601f168201915b505050505081526020019060010190610785565b505050508152505084868151811061084b5761084b61262d565b60209081029190910101526108616001866125bf565b945050505b80610870816125d7565b915050610388565b5095945050505050565b6001600160a01b0381166000908152600360205260408120546060918167ffffffffffffffff8111156108b7576108b76122dc565b60405190808252806020026020018201604052801561092357816020015b6109106040518060a0016040528060006001600160a01b03168152602001600081526020016000815260200160608152602001600081525090565b8152602001906001900390816108d55790505b50905060005b6001600160a01b038516600090815260036020526040902054811015610b57576001600160a01b03851660009081526003602052604081208054839081106109735761097361262d565b90600052602060002001549050600060026000838152602001908152602001600020805480602002602001604051908101604052809291908181526020016000905b82821015610aae5760008481526020908190206040805160a0810182526005860290920180546001600160a01b03168352600181015493830193909352600283015490820152600382018054919291606084019190610a13906125f2565b80601f0160208091040260200160405190810160405280929190818152602001828054610a3f906125f2565b8015610a8c5780601f10610a6157610100808354040283529160200191610a8c565b820191906000526020600020905b815481529060010190602001808311610a6f57829003601f168201915b50505050508152602001600482015481525050815260200190600101906109b5565b50505050905060005b8151811015610b4157876001600160a01b0316828281518110610adc57610adc61262d565b6020026020010151600001516001600160a01b03161415610b2f57818181518110610b0957610b0961262d565b6020026020010151858581518110610b2357610b2361262d565b60200260200101819052505b80610b39816125d7565b915050610ab7565b5050508080610b4f906125d7565b915050610929565b509392505050565b6000818152602081815260408083208151610140810183528154815260018201546001600160a01b03169381019390935260028101549183019190915260038101805484938493606093849384938493849389938386019190610bc1906125f2565b80601f0160208091040260200160405190810160405280929190818152602001828054610bed906125f2565b8015610c3a5780601f10610c0f57610100808354040283529160200191610c3a565b820191906000526020600020905b815481529060010190602001808311610c1d57829003601f168201915b50505050508152602001600482018054610c53906125f2565b80601f0160208091040260200160405190810160405280929190818152602001828054610c7f906125f2565b8015610ccc5780601f10610ca157610100808354040283529160200191610ccc565b820191906000526020600020905b815481529060010190602001808311610caf57829003601f168201915b50505050508152602001600582018054610ce5906125f2565b80601f0160208091040260200160405190810160405280929190818152602001828054610d11906125f2565b8015610d5e5780601f10610d3357610100808354040283529160200191610d5e565b820191906000526020600020905b815481529060010190602001808311610d4157829003601f168201915b50505050508152602001600682018054610d77906125f2565b80601f0160208091040260200160405190810160405280929190818152602001828054610da3906125f2565b8015610df05780601f10610dc557610100808354040283529160200191610df0565b820191906000526020600020905b815481529060010190602001808311610dd357829003601f168201915b50505050508152602001600782018054610e09906125f2565b80601f0160208091040260200160405190810160405280929190818152602001828054610e35906125f2565b8015610e825780601f10610e5757610100808354040283529160200191610e82565b820191906000526020600020905b815481529060010190602001808311610e6557829003601f168201915b5050505050815260200160088201805480602002602001604051908101604052809291908181526020018280548015610ee457602002820191906000526020600020905b81546001600160a01b03168152600190910190602001808311610ec6575b5050505050815260200160098201805480602002602001604051908101604052809291908181526020016000905b82821015610fbe578382906000526020600020018054610f31906125f2565b80601f0160208091040260200160405190810160405280929190818152602001828054610f5d906125f2565b8015610faa5780601f10610f7f57610100808354040283529160200191610faa565b820191906000526020600020905b815481529060010190602001808311610f8d57829003601f168201915b505050505081526020019060010190610f12565b50505050815250509050806000015181602001518260400151836060015184608001518560a001518660c001518760e001519850985098509850985098509850985050919395975091939597565b600086815260208190526040812060018101546001600160a01b038a81169116146110765760405162461bcd60e51b81526020600482015260156024820152742cb7ba9030b932903737ba103a34329037bbb732b960591b60448201526064015b60405180910390fd5b865161108b90600383019060208a0190611e2f565b5085516110a19060048301906020890190611e2f565b5084516110b79060058301906020880190611e2f565b5083516110cd9060068301906020870190611e2f565b5082516110e39060078301906020860190611e2f565b509698975050505050505050565b6001546060906000808267ffffffffffffffff811115611113576111136122dc565b60405190808252806020026020018201604052801561114c57816020015b611139611dd3565b8152602001906001900390816111315790505b50905060005b83811015610b575760006111678260016125bf565b600081815260208181526040918290208251610140810184528154815260018201546001600160a01b0316928101929092526002810154928201929092526003820180549394509192909183916060840191906111c3906125f2565b80601f01602080910402602001604051908101604052809291908181526020018280546111ef906125f2565b801561123c5780601f106112115761010080835404028352916020019161123c565b820191906000526020600020905b81548152906001019060200180831161121f57829003601f168201915b50505050508152602001600482018054611255906125f2565b80601f0160208091040260200160405190810160405280929190818152602001828054611281906125f2565b80156112ce5780601f106112a3576101008083540402835291602001916112ce565b820191906000526020600020905b8154815290600101906020018083116112b157829003601f168201915b505050505081526020016005820180546112e7906125f2565b80601f0160208091040260200160405190810160405280929190818152602001828054611313906125f2565b80156113605780601f1061133557610100808354040283529160200191611360565b820191906000526020600020905b81548152906001019060200180831161134357829003601f168201915b50505050508152602001600682018054611379906125f2565b80601f01602080910402602001604051908101604052809291908181526020018280546113a5906125f2565b80156113f25780601f106113c7576101008083540402835291602001916113f2565b820191906000526020600020905b8154815290600101906020018083116113d557829003601f168201915b5050505050815260200160078201805461140b906125f2565b80601f0160208091040260200160405190810160405280929190818152602001828054611437906125f2565b80156114845780601f1061145957610100808354040283529160200191611484565b820191906000526020600020905b81548152906001019060200180831161146757829003601f168201915b50505050508152602001600882018054806020026020016040519081016040528092919081815260200182805480156114e657602002820191906000526020600020905b81546001600160a01b031681526001909101906020018083116114c8575b5050505050815260200160098201805480602002602001604051908101604052809291908181526020016000905b828210156115c0578382906000526020600020018054611533906125f2565b80601f016020809104026020016040519081016040528092919081815260200182805461155f906125f2565b80156115ac5780601f10611581576101008083540402835291602001916115ac565b820191906000526020600020905b81548152906001019060200180831161158f57829003601f168201915b505050505081526020019060010190611514565b50505050815250508486815181106115da576115da61262d565b60209081029190910101526115f06001866125bf565b9450505080806115ff906125d7565b915050611152565b60008381526002602052604081208054849081106116275761162761262d565b9060005260206000209060050201905080600401600081548092919061164c906125d7565b9190505550816001600160a01b031683857fc58deae63c2d94e1502a392380f59901dc4cd3c3bbc40308b6189decf09671d5846004015460405161169291815260200190565b60405180910390a450505050565b606060026000838152602001908152602001600020805480602002602001604051908101604052809291908181526020016000905b828210156117ce5760008481526020908190206040805160a0810182526005860290920180546001600160a01b03168352600181015493830193909352600283015490820152600382018054919291606084019190611733906125f2565b80601f016020809104026020016040519081016040528092919081815260200182805461175f906125f2565b80156117ac5780601f10611781576101008083540402835291602001916117ac565b820191906000526020600020905b81548152906001019060200180831161178f57829003601f168201915b50505050508152602001600482015481525050815260200190600101906116d5565b505050509050919050565b60008080805b6005548110156118595760006117f68260016125bf565b6000818152600460205260409020600201549091501561184657600081815260046020526040812060028101546001909101546118339190612643565b905084811115611844578094508193505b505b5080611851816125d7565b9150506117df565b5092915050565b60008087116118b15760405162461bcd60e51b815260206004820152601c60248201527f5072696365206d7573742062652067726561746572207468616e203000000000604482015260640161106d565b60018054600091826118c2836125d7565b909155506000818152602081815260409091208281556001810180546001600160a01b0319166001600160a01b038e16179055600281018b9055895192935091611914916003840191908b0190611e2f565b50865161192a90600483019060208a0190611e2f565b5085516119409060058301906020890190611e2f565b5084516119569060068301906020880190611e2f565b50835161196c9060078301906020870190611e2f565b50896001600160a01b0316827f23fb658c1698b92f5fe511a079c17ecf7965cbc3f1b873328c67e2c3c0820f1f8b6040516119a991815260200190565b60405180910390a35098975050505050505050565b6000828152602081905260409020600201543490811015611a165760405162461bcd60e51b8152602060048201526012602482015271496e73756666696369656e742066756e647360701b604482015260640161106d565b600083815260208190526040808220600181015491519092916001600160a01b03169084908381818185875af1925050503d8060008114611a73576040519150601f19603f3d011682016040523d82523d6000602084013e611a78565b606091505b505090508015611ada576001820180546001600160a01b0319166001600160a01b038616908117909155604051848152819087907fddd64180d9701c7ede08673ac8106484ff983a472929330d4fbde4e35d65cb069060200160405180910390a45b5050505050565b60018410158015611af3575060058411155b611b375760405162461bcd60e51b815260206004820152601560248201527422b93937b91034b7103930ba34b7339033b4bb32b760591b604482015260640161106d565b6000858152602081815260408220600881018054600180820183559185528385200180546001600160a01b0319166001600160a01b0387161790556009820180549182018155845291909220611b8f91018585611eb3565b50600260008781526020019081526020016000206040518060a00160405280846001600160a01b0316815260200188815260200187815260200186868080601f0160208091040260200160405190810160405280939291908181526020018383808284376000920182905250938552505050602091820181905283546001808201865594825290829020835160059092020180546001600160a01b0319166001600160a01b0390921691909117815582820151938101939093556040820151600284015560608201518051929392611c6d9260038501920190611e2f565b50608091909101516004918201556001600160a01b03831660009081526003602090815260408083208054600181018255908452828420018a9055898352929052908120600201805491611cc0836125d7565b9190505550816001600160a01b0316867f4beb3faed0901f48c8eaa53db80247f723ddeb08676b6badb9ee2f191d1ac2df878787604051611d0393929190612665565b60405180910390a360058054906000611d1b836125d7565b9190505550505050505050565b60008281526020819052604090206001810154606091906001600160a01b03868116911614611d915760405162461bcd60e51b81526020600482015260156024820152742cb7ba9030b932903737ba103a34329037bbb732b960591b604482015260640161106d565b6002018290555060408051808201909152601e81527f596f75722050726f70657274792070726963652069732075706461746564000060208201529392505050565b6040518061014001604052806000815260200160006001600160a01b0316815260200160008152602001606081526020016060815260200160608152602001606081526020016060815260200160608152602001606081525090565b828054611e3b906125f2565b90600052602060002090601f016020900481019282611e5d5760008555611ea3565b82601f10611e7657805160ff1916838001178555611ea3565b82800160010185558215611ea3579182015b82811115611ea3578251825591602001919060010190611e88565b50611eaf929150611f27565b5090565b828054611ebf906125f2565b90600052602060002090601f016020900481019282611ee15760008555611ea3565b82601f10611efa5782800160ff19823516178555611ea3565b82800160010185558215611ea3579182015b82811115611ea3578235825591602001919060010190611f0c565b5b80821115611eaf5760008155600101611f28565b80356001600160a01b0381168114611f5357600080fd5b919050565b600060208284031215611f6a57600080fd5b611f7382611f3c565b9392505050565b6000815180845260005b81811015611fa057602081850181015186830182015201611f84565b81811115611fb2576000602083870101525b50601f01601f19169290920160200192915050565b600081518084526020808501945080840160005b838110156120005781516001600160a01b031687529582019590820190600101611fdb565b509495945050505050565b600081518084526020808501808196508360051b8101915082860160005b85811015612053578284038952612041848351611f7a565b98850198935090840190600101612029565b5091979650505050505050565b60006020808301818452808551808352604092508286019150828160051b87010184880160005b8381101561218f57888303603f19018552815180518452878101516001600160a01b038116898601526101409050878201518886015260608083015182828801526120d483880182611f7a565b92505050608080830151868303828801526120ef8382611f7a565b9250505060a0808301518683038288015261210a8382611f7a565b9250505060c080830151868303828801526121258382611f7a565b9250505060e080830151868303828801526121408382611f7a565b92505050610100808301518683038288015261215c8382611fc7565b92505050610120808301519250858203818701525061217b818361200b565b968901969450505090860190600101612087565b509098975050505050505050565b60006020808301818452808551808352604092508286019150828160051b87010184880160005b8381101561218f57888303603f19018552815180516001600160a01b031684528781015188850152868101518785015260608082015160a0828701819052919061221083880182611f7a565b60809485015197909401969096525050948701949250908601906001016121c4565b60006020828403121561224457600080fd5b5035919050565b8881526001600160a01b0388166020820152604081018790526101006060820181905260009061227d83820189611f7a565b905082810360808401526122918188611f7a565b905082810360a08401526122a58187611f7a565b905082810360c08401526122b98186611f7a565b905082810360e08401526122cd8185611f7a565b9b9a5050505050505050505050565b634e487b7160e01b600052604160045260246000fd5b600082601f83011261230357600080fd5b813567ffffffffffffffff8082111561231e5761231e6122dc565b604051601f8301601f19908116603f01168101908282118183101715612346576123466122dc565b8160405283815286602085880101111561235f57600080fd5b836020870160208301376000602085830101528094505050505092915050565b600080600080600080600060e0888a03121561239a57600080fd5b6123a388611f3c565b965060208801359550604088013567ffffffffffffffff808211156123c757600080fd5b6123d38b838c016122f2565b965060608a01359150808211156123e957600080fd5b6123f58b838c016122f2565b955060808a013591508082111561240b57600080fd5b6124178b838c016122f2565b945060a08a013591508082111561242d57600080fd5b6124398b838c016122f2565b935060c08a013591508082111561244f57600080fd5b5061245c8a828b016122f2565b91505092959891949750929550565b60008060006060848603121561248057600080fd5b833592506020840135915061249760408501611f3c565b90509250925092565b600080604083850312156124b357600080fd5b823591506124c360208401611f3c565b90509250929050565b6000806000806000608086880312156124e457600080fd5b8535945060208601359350604086013567ffffffffffffffff8082111561250a57600080fd5b818801915088601f83011261251e57600080fd5b81358181111561252d57600080fd5b89602082850101111561253f57600080fd5b60208301955080945050505061255760608701611f3c565b90509295509295909350565b60008060006060848603121561257857600080fd5b61258184611f3c565b95602085013595506040909401359392505050565b602081526000611f736020830184611f7a565b634e487b7160e01b600052601160045260246000fd5b600082198211156125d2576125d26125a9565b500190565b60006000198214156125eb576125eb6125a9565b5060010190565b600181811c9082168061260657607f821691505b6020821081141561262757634e487b7160e01b600052602260045260246000fd5b50919050565b634e487b7160e01b600052603260045260246000fd5b60008261266057634e487b7160e01b600052601260045260246000fd5b500490565b83815260406020820152816040820152818360608301376000818301606090810191909152601f909201601f191601019291505056fea2646970667358221220d533972b8b81074c67743162ab39dd7e217ecac58142fd5182413a98e5882bd564736f6c63430008090033",
  "linkReferences": {},
  "deployedLinkReferences": {}
}